:020000040000FA
:100000000C9435000C945D000C945D000C945D0024
:100010000C945D000C945D000C945D000C945D00EC
:100020000C945D000C945D000C945D000C945D00DC
:100030000C945D000C945D000C945D000C945D00CC
:100040000C94BD020C945D000C942D030C940703DA
:100050000C945D000C945D000C945D000C945D00AC
:100060000C945D000C945D00270511241FBECFEF9A
:10007000D8E0DEBFCDBF13E0A0E0B1E0EAE4FBE0F2
:1000800002C005900D92AC38B107D9F724E0ACE876
:10009000B3E001C01D92A035B207E1F710E0C5E35F
:1000A000D0E004C02197FE010E948C05C433D10723
:1000B000C9F70E945F030C94A3050C940000AF9253
:1000C000BF92CF92DF92EF92FF920F931F93CF9345
:1000D000DF936C017B018B01040F151FEB015E01A7
:1000E000AE18BF08C017D10759F06991D601ED913C
:1000F000FC910190F081E02DC6010995892B79F7DB
:10010000C501DF91CF911F910F91FF90EF90DF908C
:10011000CF90BF90AF900895FC01538D448D252F53
:1001200030E0842F90E0821B930B541710F0CF9691
:10013000089501970895FC01918D828D981761F0C3
:10014000A28DAE0FBF2FB11D5D968C91928D9F5FDA
:100150009F73928F90E008958FEF9FEF0895FC01B9
:10016000918D828D981731F0828DE80FF11D858D6C
:1001700090E008958FEF9FEF0895FC01918D228DFF
:10018000892F90E0805C9F4F821B91098F73992784
:10019000089583EB93E00E94BD0021E0892B09F4D0
:1001A00020E0822F089580E090E0892B29F00E94C2
:1001B000C90081110C9400000895FC01A48DA80FC2
:1001C000B92FB11DA35ABF4F2C91848D90E0019699
:1001D0008F739927848FA689B7892C93A089B189B9
:1001E0008C91837080648C93938D848D981306C05A
:1001F0000288F389E02D80818F7D80830895EF92BE
:10020000FF920F931F93CF93DF93EC0181E0888FD0
:100210009B8D8C8D98131AC0E889F989808185FFA0
:1002200015C09FB7F894EE89FF896083E889F98942
:1002300080818370806480839FBF81E090E0DF9144
:10024000CF911F910F91FF90EF900895F62E0B8D97
:1002500010E00F5F1F4F0F731127E02E8C8D8E1152
:100260000CC00FB607FCFACFE889F989808185FFB9
:10027000F5CFCE010E94DD00F1CFEB8DEC0FFD2F0D
:10028000F11DE35AFF4FF0829FB7F8940B8FEA8974
:10029000FB8980818062CFCFCF93DF93EC01888D83
:1002A0008823B9F0AA89BB89E889F9898C9185FDF1
:1002B00003C0808186FD0DC00FB607FCF7CF8C917F
:1002C00085FFF2CF808185FFEDCFCE010E94DD005A
:1002D000E9CFDF91CF910895FC0101900020E9F76B
:1002E0003197AF01481B590BBC0183EB93E00C9491
:1002F0005F00CF93DF930E946C01EC0186E092E0F7
:100300000E946C018C0F9D1FDF91CF91089589E0B1
:1003100092E00C94790184E192E00C9479018CE1F3
:1003200092E00C94790184E292E00C94790189E3E3
:1003300092E00C94790183E492E00C9479018FE4CB
:1003400092E00C94790188E592E00C94790181E6C1
:1003500092E00C9479018FE692E00C9479018EE79B
:1003600092E00C9479018CE892E00C9479018AE98E
:1003700092E00C94790187EA92E00E947901E1E928
:10038000F3E0119283E0ED39F807D9F7EEE9F3E0F5
:100390008AEA93E011928E179F07E1F788EC92E0CA
:1003A0000C94790180919D03811107C081E08093B5
:1003B0009D038AED92E00C94790110929D0385EEE5
:1003C00092E0F9CF8F929F92AF92BF92CF92DF923D
:1003D000EF92FF920F931F93CF93DF93CDB7DEB7CA
:1003E000A1970FB6F894DEBF0FBECDBF6C01990F79
:1003F000EE08FF08F7FE47C06DE283EB93E00E9432
:10040000FF008C0122273327A9012C193D094E0931
:100410005F0919A2CE0181967C019AE0892E912C68
:10042000A12CB12CCA01B901A50194010E946A0551
:10043000605DF70162937F0121153105410551058A
:1004400089F790E080E0309719F0CF010E946C01AD
:10045000080F191F86E092E00E946C01800F911F27
:10046000A1960FB6F894DEBF0FBECDBFDF91CF913E
:100470001F910F91FF90EF90DF90CF90BF90AF90C2
:100480009F908F900895A701960119A28E010F5D8C
:100490001F4F8AE0C82ED12CE12CF12CCA01B901E2
:1004A000A70196010E946A05605DF80162938F01C1
:1004B000211531054105510589F7309729F0CF0104
:1004C0000E946C018C01C6CF10E000E0C3CFCF9238
:1004D000DF92EF92FF920F931F93CF93DF93EB0185
:1004E0007B0121E1E20EF11C8B016C01C61AD70AD7
:1004F000C601800F911F0E945405F80181938F015E
:10050000EE15FF05A9F7CE01DF91CF911F910F9155
:10051000FF90EF90DF90CF9008959F92AF92BF929F
:10052000CF92DF92EF92FF920F931F93CF93DF93BF
:100530005C017B018B01D0E0C0E0F80191908F015C
:100540006501CC0EDD1EC6010E945405981621F0EF
:10055000692DC6010E945C052196C131D10569F75C
:10056000C701DF91CF911F910F91FF90EF90DF9026
:10057000CF90BF90AF909F9008951F920F920FB6AB
:100580000F9211242F933F938F939F93AF93BF9319
:100590008091AF039091B003A091B103B091B203E9
:1005A0003091AE0323E0230F2D3758F50196A11D9E
:1005B000B11D2093AE038093AF039093B003A0933B
:1005C000B103B093B2038091AA039091AB03A091C1
:1005D000AC03B091AD030196A11DB11D8093AA0398
:1005E0009093AB03A093AC03B093AD03BF91AF91D5
:1005F0009F918F913F912F910F900FBE0F901F9061
:10060000189526E8230F0296A11DB11DD2CF1F9287
:100610000F920FB60F9211242F933F934F935F9336
:100620006F937F938F939F93AF93BF93EF93FF93BA
:1006300083EB93E00E94DD00FF91EF91BF91AF91BA
:100640009F918F917F916F915F914F913F912F91EA
:100650000F900FBE0F901F9018951F920F920FB61C
:100660000F9211242F938F939F93EF93FF93E09119
:10067000C303F091C4038081E091C903F091CA03E0
:1006800082FD1BC090818091CC038F5F8F7320917E
:10069000CD03821741F0E091CC03F0E0ED54FC4F24
:1006A000958F8093CC03FF91EF919F918F912F9124
:1006B0000F900FBE0F901F9018958081F4CFCF93AD
:1006C000DF93CDB7DEB7E3970FB6F894DEBF0FBE6A
:1006D000CDBF789484B5826084BD84B5816084BDCB
:1006E00085B5826085BD85B5816085BD80916E00D0
:1006F000816080936E001092810080918100826001
:10070000809381008091810081608093810080913D
:1007100080008160809380008091B100846080932C
:10072000B1008091B00081608093B00080917A0028
:10073000846080937A0080917A00826080937A004E
:1007400080917A00816080937A0080917A0080683D
:1007500080937A001092C100E091C303F091C4032A
:1007600082E08083E091BF03F091C0031082E091AA
:10077000C103F091C2038FEC80831092CB03E09110
:10078000C703F091C80386E08083E091C503F09130
:10079000C603808180618083E091C503F091C60328
:1007A000808188608083E091C503F091C6038081D9
:1007B00080688083E091C503F091C60380818F7DBE
:1007C000808381EF92E00E94790187E093E00E94AC
:1007D000790181E1E2EDF1E0DE01939601900D9265
:1007E0008A95E1F781E1E3EEF1E0DE0152960190B6
:1007F0000D928A95E1F7BE016D5D7F4F90E080E03C
:100800000E948D02BE016E5E7F4F81E190E00E94EA
:100810008D0210E000E0BE016F5F7F4FC8010E94B3
:10082000670268E173E0CE0101960E949A05892B68
:1008300009F090C0BE016F5F7F4FC8010E94670240
:1008400082E293E00E946C01CE0101960E94790140
:100850008FE293E00E946C018E859F850E94E201E9
:1008600080E493E00E946C01888999890E94E201EA
:100870009AEAA92E93E0B92E2EE0922E30E0C32EF4
:1008800030E0D32E8824839483EB93E00E94BD0054
:10089000892B09F4D0C083EB93E00E949B009091D8
:1008A0009003803209F461C08D3019F08A3009F06C
:1008B00068C0992309F45EC089E493E00E946C014A
:1008C0008EE993E00E946C018DE293E00E946C013E
:1008D00081E993E00E94790110928F0310928E03B8
:1008E00010928D0310928C038EE0E82E81E0F82E9A
:1008F00010E000E06EE973E0C7010E949A05892BC1
:1009000009F464C00F5F1F4F8EE0E80EF11C0F303A
:10091000110581F7E12CF0909D03FF2009F459C0E7
:10092000E1105DC06EE973E080E091E00E949A05FD
:100930008C01892B09F454C06EE973E08EE091E0DC
:100940000E949A0502E010E0892B09F044C001E002
:1009500010E046C00F5E1F4F0A3A110509F05BCF49
:100960008BE793E00E94790183CF9111A5CF80920C
:1009700090038ACF89E493E00E946C018EE993E0B2
:10098000A9CF992379F020918C0330918D03F9013F
:10099000EF56FC4F80832F5F3F4F30938D032093A2
:1009A0008C0372CF082E000C990B0E9492052091A7
:1009B0008E0330918F03F901E256FC4F80832F5F45
:1009C0003F4F30938F0320938E035ECFEE24E3944A
:1009D000A2CFE11005C085E593E00E947901F12CDA
:1009E000EEE9F3E01192AE16BF06E1F7E1E9F3E0BC
:1009F000119283E0ED39F807D9F783EB93E00E9479
:100A00004C01EE2059F0909EF001919EF00D1124C2
:100A1000E25FFE4F0484F585E02D0995FF2059F033
:100A2000909EF001919EF00D1124E050FF4F048440
:100A3000F585E02D0995C114D10409F425CF0E9454
:100A4000C900882309F420CF0E9400001DCFE3EBEA
:100A5000F3E01382128288EE93E0A0E0B0E084839A
:100A60009583A683B78388EF91E09183808385EC9B
:100A700090E09587848784EC90E09787868780EC68
:100A800090E0918B808B81EC90E0938B828B82EC59
:100A900090E0958B848B86EC90E0978B868B118E03
:100AA000128E138E148E0895F999FECF92BD81BDDA
:100AB000F89A992780B50895262FF999FECF1FBA85
:100AC00092BD81BD20BD0FB6F894FA9AF99A0FBE77
:100AD00001960895A1E21A2EAA1BBB1BFD010DC0B1
:100AE000AA1FBB1FEE1FFF1FA217B307E407F507DE
:100AF00020F0A21BB30BE40BF50B661F771F881FBA
:100B0000991F1A9469F760957095809590959B014F
:100B1000AC01BD01CF010895EE0FFF1F0590F491C8
:100B2000E02D09949111089581548A5108F4805E52
:100B3000855A0895FB01DC018D9101908019011007
:100B4000D9F3990B0895F894FFCF72656C6F6164C7
:100B50005F636C690000BB0173746F726500000015
:100B6000000000009F01726574726965766500007F
:100B70000000A301657261736500000000000000C1
:100B80009B0166696C65730000000000000097011E
:100B9000667265657370616365000000930172752C
:100BA0006E000000000000000000B3016C69737467
:100BB0000000000000000000B70173757370656EDF
:100BC000640000000000AF01726573756D65000080
:100BD00000000000AB016B696C6C000000000000BD
:100BE0000000A7017661725F61646400000000008C
:100BF0008F017661725F64656C65746500008701C2
:100C00007661725F67657400000000008B016465A7
:100C1000766D6F64650000000000D20166696C6546
:100C2000312E747874000000000000640066696C66
:100C300065322E747874000000006400C800000063
:100C40000000FF005F008C004C01BD009B00AF0066
:100C50000D0A004D656D2064656C657465004D6519
:100C60006D20676574004D656D20416464004669C0
:100C70006C6520737061636120617661696C61628B
:100C80006C650046696C65206C6973740046696C1C
:100C9000652044656C6574650046696C6520416437
:100CA000640046696C65204765740050726F636527
:100CB00073732041626F72740050726F6365737357
:100CC00020526573756D650050726F636573732094
:100CD00050617573650050726F6365737320537450
:100CE0006172740070726F63657373206C697374E2
:100CF0000052656C6F6164696E6720617267206184
:100D00006E6420636F6D6D616E64206275666665EA
:100D10007200446F6E652072656C6F6164696E6706
:100D20002E2E2E004465766D6F6465204F4E004474
:100D300065766D6F6465204F464600417264756943
:100D40006E4F533E3E204C6F6164696E672E2E2EAF
:100D50000041726475696E4F533E3E205265616476
:100D6000790066696C65322E74787400466F756E12
:100D7000642066696C653A20005374617274207057
:100D80006F736974696F6E3A20004C656E677468A2
:100D90003A200041726475696E4F533E3E20004315
:100DA0006F6D6D616E64206E6F7420666F756E641A
:100DB0002E20506C656173652074727920616761C3
:100DC000696E2E2E0046696C65206E6F7420666F0A
:060DD000756E642E0000A8
:107E0000112484B714BE81FFF0D085E080938100F7
:107E100082E08093C00088E18093C10086E0809377
:107E2000C20080E18093C4008EE0C9D0259A86E02C
:107E300020E33CEF91E0309385002093840096BBD3
:107E4000B09BFECF1D9AA8958150A9F7CC24DD24C4
:107E500088248394B5E0AB2EA1E19A2EF3E0BF2EE7
:107E6000A2D0813461F49FD0082FAFD0023811F036
:107E7000013811F484E001C083E08DD089C08234E0
:107E800011F484E103C0853419F485E0A6D080C0E4
:107E9000853579F488D0E82EFF2485D0082F10E0AE
:107EA000102F00270E291F29000F111F8ED06801E7
:107EB0006FC0863521F484E090D080E0DECF843638
:107EC00009F040C070D06FD0082F6DD080E0C81688
:107ED00080E7D80618F4F601B7BEE895C0E0D1E017
:107EE00062D089930C17E1F7F0E0CF16F0E7DF06D8
:107EF00018F0F601B7BEE89568D007B600FCFDCFD4
:107F0000A601A0E0B1E02C9130E011968C91119780
:107F100090E0982F8827822B932B1296FA010C0160
:107F200087BEE89511244E5F5F4FF1E0A038BF0790
:107F300051F7F601A7BEE89507B600FCFDCF97BE46
:107F4000E89526C08437B1F42ED02DD0F82E2BD052
:107F50003CD0F601EF2C8F010F5F1F4F84911BD097
:107F6000EA94F801C1F70894C11CD11CFA94CF0C13
:107F7000D11C0EC0853739F428D08EE10CD085E9AC
:107F80000AD08FE07ACF813511F488E018D01DD067
:107F900080E101D065CF982F8091C00085FFFCCF94
:107FA0009093C60008958091C00087FFFCCF809118
:107FB000C00084FD01C0A8958091C6000895E0E648
:107FC000F0E098E1908380830895EDDF803219F02E
:107FD00088E0F5DFFFCF84E1DECF1F93182FE3DFCA
:107FE0001150E9F7F2DF1F91089580E0E8DFEE27F6
:047FF000FF270994CA
:027FFE00040479
:00000001FF
